:020000041000EA
:1000000000B5324B212058609868022188439860DF
:10001000D860186158612E4B002199600221596106
:100020000121F02299502B49196001219960352056
:1000300000F044F80222904214D00621196600F024
:1000400034F8196E01211966002018661A6600F04E
:100050002CF8196E196E196E052000F02FF8012189
:100060000842F9D1002199601B49196000215960AB
:100070001A491B48016001219960EB211966A021F2
:10008000196600F012F800219960164914480160C1
:100090000121996001BC002800D000471248134993
:1000A000086003C880F30888084703B5996A0420EC
:1000B0000142FBD001200142F8D103BD02B5186610
:1000C0001866FFF7F2FF186E186E02BD00000240BE
:1000D000000000180000070000035F00212200005C
:1000E000F4000018222000A00001001008ED00E03C
:1000F00000000000000000000000000074B24E7A12
:1001000000200420F7010010C3010010C5010010F9
:10011000C1010010C1010010C1010010C101001097
:10012000C1010010C1010010C1010010C701001081
:10013000C1010010C1010010C9010010CB01001065
:10014000CD010010CD010010CD010010CD01001037
:10015000CD010010CD010010CD010010CD01001027
:10016000CD010010CD010010CD010010CD01001017
:10017000CD010010CD010010CD010010CD01001007
:10018000CD010010CD010010CD010010CD010010F7
:10019000CD010010CD010010CD010010CD010010E7
:1001A000CD010010CD010010CD010010CD010010D7
:1001B000CD010010CD010010CD010010CD010010C7
:1001C00000BE00BE00BE00BE00BE00BEEFF3058054
:1001D000103800BEF2EB8871205C0010445C001007
:1001E0003402001090A31AE700201F49086006C8D7
:1001F00081F3088810471D48006800282FD10DA4FE
:100200000ECC002902D000F012F8F9E71849194A7B
:10021000002000E001C19142FCD1174988471749ED
:1002200088471749884700BEFDE701C901C29A42C5
:10023000FBD37047445C0010C0000020FC0300208A
:10024000805F00100000042000000420805F001088
:10025000001004200010042000000000704709482E
:1002600003F03CFA0047000008ED00E0000000D079
:100270000004002020080020B5240010CD05001047
:10028000712400105756000006005250ABB3605363
:10029000F45A001006005250861C0302045B001042
:1002A000060052505422A29D1C5B001005005250C3
:1002B000DE65F468805F0010F8B5C0460448054B61
:1002C00010B5834203D0044B002B00D0984710BDDB
:1002D000FC030020FC030020000000000648074942
:1002E000091A8910CB0F591810B5491003D0044BC7
:1002F000002B00D0984710BDFC030020FC03002019
:100300000000000010B5074C2378002B09D1FFF73F
:10031000D5FF054B002B02D0044800E000BF0123AD
:10032000237010BD0005002000000000684C001084
:10033000054B10B5002B03D00449054800E000BF71
:10034000FFF7CCFF10BDC0460000000004050020F0
:10035000684C001010B504001F2100F0FBF90022CA
:100360000021200000F00EFA0021200000F024FA05
:1003700010BD0000081AC317C2185A40064B9A4213
:1003800004DD002803DD054B9C4660447047802354
:100390005B019C466044F9E7FF07000000F0FFFFA7
:1003A000F8B577E0C30F18184010693003F0C6FCA9
:1003B00002000B000020002104F036FC03F0FAFCE0
:1003C00080B2704F3B6858400004000C6E4E3060A5
:1003D000D024240608256561012001F0D3F93B688B
:1003E0001B041B0C3360A561D0231B068022120165
:1003F0005A61664B1A6880235B015340E022D201A8
:100400001340634A1360634B04221A605F4B1B68FE
:10041000DB05FBD55D4B5C68A4B25F4B1C805F4D78
:1004200028882100FFF7A6FF5D4B1A6894466044B8
:1004300018602C805B4B1B68181A5B4B186003001C
:100440000A3379DAC30F18184010693003F076FCCC
:1004500002000B000020002104F0E6FB03F0AAFCE0
:100460000304524F386843401B0C1B04504E33604A
:10047000D024240680256D026561012001F082F9F7
:100480003B681B0C1B043360A561D0231B06802234
:1004900012019A61D0231B06802212019A613B4B04
:1004A0001B68E022D2011340394A1360394B042201
:1004B0001A60364B1B68DB05FBD5344B5C68A4B275
:1004C0003C4B1C803C4D28882100FFF753FF3B4BE1
:1004D0001A689446604418602C80394B1B68181ABF
:1004E000384B186003000A3300DA5BE70A2800DCA7
:1004F0007AE7C30F18184010053803F01FFC0200FC
:100500000B000020304904F09FFB03F053FC80B245
:100510001C4F3B6858400004000C1B4E3060D02438
:1005200024060825A561012001F02CF93B681B0475
:100530001B0C3360A56157E70A28A6DDC30F181806
:100540004010053803F0FAFB02000B0000201E49A2
:1005500004F07AFB03F02EFC0304144F3868434088
:100560001B0C1B04124E3360D024240680256D0220
:10057000A561012001F006F93B681B0C1B043360E8
:10058000A56182E7200005402010054000C004401E
:1005900000D0044000E004401406002010060020B3
:1005A00060050020E0050020A80500200C000540A3
:1005B0000C100540F2050020080600205C05002014
:1005C000DC050020A405002000005940F0B5D64607
:1005D0004F464646C0B50B2000F006F9102000F04B
:1005E00003F9032000F000F90D2000F0FDF81620BB
:1005F00000F0FAF8172000F0F7F804F027FA1A20B4
:10060000FFF7A8FE1B20FFF7A5FED02424068027B5
:100610003F0167628026F603666280231B04A362A3
:100620000421112000F096F83A4B994664239A462B
:100630004B4652461A61384B1B681B041B0C374A49
:1006400013604B461B6801252A009A43344B1A60FD
:1006500080235B02984663620421022000F07AF84E
:100660004B4652465A622F4B1B681B041B0C2E4AEA
:1006700013602E4B1B689D432D4B1D600822626248
:1006800080239B0163624146A161A261636167614E
:10069000A66104F0CFF8274B1B68E022D20113407B
:1006A000254A1360254B04221A60224B1B68DB0588
:1006B000FBD5204B5968224A11801A6880235B01C0
:1006C0005340E022D20113401B4A13601B4B04220B
:1006D0001A60184B1B68DB05FBD5164B5A68194B83
:1006E0001A80D0231B06802212019A618022920177
:1006F0009A61154804F040FA144D00232B60144C05
:10070000200001F03FF88023DB002B60200001F087
:1007100039F8F1E7000005400C0005400C100540D9
:100720000010054020000540201005401400054041
:100730001410054000C0044000D0044000E0044014
:100740000806002010060020A1030010DC05002090
:100750008813000010B58300084A944663441C685F
:1007600040226240C02414408022520113431C6086
:10077000C000034B9C466044416010BD04C0014072
:100780000040014080000B4B9C46604400290DD086
:100790000823002A0CD004221343026853400C2281
:1007A0001340802252011043036070470023F0E79A
:1007B0000022F1E704C00140002909D08000094B64
:1007C0009C46604480239B0118434023036070478C
:1007D0008000044B9C466044C0239B011843402387
:1007E0000360F4E704C0014010B501238340D02228
:1007F0001206936293610521FFF7ACFF10BD000064
:10080000034B1B6802201840431E9841C0B270473A
:1008100000C00640EFF3108072B6034B1B68002B3C
:10082000FBD0BFF35F8F70472C0100D0BFF35F8F09
:10083000024B00221A6080F3108870472C0100D010
:1008400070B505000E001400FFF7E4FFF208AA18C7
:1008500015780721314001238B402B4205D1DBB2B3
:100860002B431370FFF7E2FF70BD3100200001F051
:100870009DFE000000231F2B08D8054A9A189200FD
:10088000BFF35F8F002111600133F4E77047C0466A
:1008900040000034054A1078431CDBB21370172B5C
:1008A00002D9130010221A707047C0462803002096
:1008B000074B9B68103080001950BFF35F8FBFF368
:1008C0005F8F044B0021196082F310887047C04687
:1008D00000ED00E0240100D010B5091A0B1F0A4AF0
:1008E00094466144094A914208D8DA0706D45B105D
:1008F0005B055B0D0648184380B210BD054B064AE8
:10090000A321064801F0B8FDFC070000FE0F00001F
:1009100000E0FFFF844E0010844C0010B44E001025
:1009200010B5091A04394C08090B08D14905490DBD
:10093000064A11430180064B2343438010BD054BFB
:10094000054AAB21054801F097FDC04600F0FFFFC6
:1009500000F8FFFFE84C0010904C0010B44E00105F
:1009600001238340034A10681840431E9841C0B2D7
:100970007047C04600E100E0002904D0034B186036
:10098000034B18607047034B1860FBE780E200E000
:1009900000E100E080E100E010B501238340180091
:1009A000FFF7EAFF10BD0000024B9B68103080008B
:1009B000C058704700ED00E070B504000D00EFF383
:1009C000108672B60C4B1B68002BFBD0BFF35F8FF9
:1009D0002000FFF7E9FF094B984201D0A84205D15A
:1009E000320029002000FFF763FF70BD044B054A69
:1009F0008621054801F040FD240100D0CD01001002
:100A00004C4E0010684C0010B44E0010F0B5C646B5
:100A100000B584B001900D00EFF3108672B6554B0F
:100A20001B68002BFBD0BFF35F8F534B9A68019C70
:100A30001034A300D758514B9F4207D0AF4200D18A
:100A400095E002974E4BFB1A2F2B08D93200390044
:100A50000198FFF72DFF04B004BC9046F0BD01984B
:100A6000FFF77EFF039000210198FFF795FFBFF38A
:100A70005F8FEFF30581002901D08C4211D1012352
:100A8000029C9C430020A368AB4212D00622A256CF
:100A9000002A0DDB53009B189A002000384CA41844
:100AA000F1E73621374B384AFF31384801F0E4FC92
:100AB0002000AB4254D10623E3569846002B35DB89
:100AC0005A00424491002E4B5B189A68A260DA7972
:100AD000E2719B795BB2A371002B11DA2C48A080E4
:100AE00043465B0043449A00254B9B18294A1178E2
:100AF00099714346137003990198FFF74DFFA5E7DD
:100B0000201D1F4A8B181A1D9B88D90A1C2907D142
:100B100059054915023149005118FFF7DDFEDEE79E
:100B20001D4B1E4AB121194801F0A6FC002912D123
:100B300000280ED0FF238371194B8380154A137848
:100B4000A371184B0E49641A644163431B0D137063
:100B5000D1E70A4FF2E7201D1349FFF7E1FECAE78C
:100B60006A21124B084AFF31084801F085FC034F07
:100B70006CE7C046240100D000ED00E0CD0100107C
:100B80002C030020104E0010B84C0010B44E001082
:100B900001BD0000E9050020BC4D0010A84C00106C
:100BA00001BDFFFFAAAA000066030020444E00100A
:100BB000F8B5012101432E4BCB1A2F2B28D8EFF388
:100BC0000583002B2BD0EFF3108572B6294A1268EB
:100BD000002AFBD0BFF35F8F274A0400244EA41BDA
:100BE00064416243120D54B2244A92689B00D25869
:100BF0008A421BD00023032B32D85A00D21891000E
:100C00001B4A5218927952B2A2421FD00133F2E726
:100C1000C7211B4B1B4A49001B4801F02DFC9221A8
:100C20001A4B184AFF31184801F026FC134A926803
:100C30001749D150174B1A7882711C70BFF35F8F20
:100C40000C4B00221A6085F31088F8BD08495A0041
:100C5000D718BE008E19FF27B7710F4BB380E9E795
:100C6000D1210E4B074A4900074801F005FCC04658
:100C70002C030020240100D0AAAA000000ED00E00F
:100C8000D44D0010CC4C0010B44E0010FC4D0010A0
:100C9000CD010010E905002001BDFFFF084E001046
:100CA0000022044B02E0044902C30132072AFAD9A8
:100CB0007047C04600E400E080808080024B9C4684
:100CC00061448900016070474000003410B50400A1
:100CD000FFF7E0FD01002000FFF7F0FFFF23237185
:100CE000BFF35F8F10BD10B50400FFF7D3FD010007
:100CF0002000FFF7E3FFFF23237100236371BFF39D
:100D00005F8F10BD0A4B1A68EFF3108172B613683B
:100D1000002BFCD0BFF35F8F054B1B68BFF35F8FC9
:100D200000221A6081F3108840BF00200021704724
:100D3000C805002070B505000C00080000F0D4FEC6
:100D40000949200000F014FEFFF7A4FD074B9C4664
:100D50006044800068602C75D0231B061B786B757F
:100D6000A400034BE55070BD551000104000003446
:100D7000B405002010B5002922D003681B7B9942DE
:100D80001ED8174B9C466144090183689C46614408
:100D90000C684968002A19D003681B7B9A4215D851
:100DA00083680F488446624412019A181068536899
:100DB000020001208B4201D80ED00020C0B210BD2D
:100DC000084B094A3C21094801F056FB054B064AED
:100DD0003C21064801F050FBA242EFD8EDE7C046A7
:100DE000FFFFFF0F10530010545000108C520010E2
:100DF00010B500291ED0037B99421BD84B005B180D
:100E0000033B0468A4466344002919D0002A1DD07E
:100E1000914221D0002A25D0047BA24222D8046826
:100E200050008018033820188170197800291FD1CC
:100E30001A7010BD104B114A6821114801F01CFBBB
:100E4000104B114A6F310E4801F016FB0F4B0E4A42
:100E500070210B4801F010FB0D4B0B4A7121084823
:100E600001F00AFB044B054A6821054801F004FB28
:100E700041701A70DDE7C046E451001014500010B4
:100E80000052001048520010205000105452001020
:100E90006052001070B506000D001400002914D037
:100EA000002A14D0806873689847002806D0220072
:100EB00029003000FFF79CFF280007E02A002100EE
:100EC0003000FFF795FF200000E0100070BD080023
:100ED000FCE7000070B5CE4600B583B00500009277
:100EE00001930AAB1C780BAB1B789946002C28D0D9
:100EF00003685A7B944209D10123002B1BD1002C9B
:100F00003DD1200003B004BC914670BD002C0CD034
:100F10001A7B944209D81A6863001B19033BD31843
:100F20009B78002BE9D00123E7E73F4B3F4A68213C
:100F30003F4801F0A1FA3F4B3F4A67213F4801F08B
:100F40009BFA03689C7B002CD9D012D01A7B944268
:100F50000FD862001219033A19688C46624451781E
:100F60009973002900D1D9730023937053701370C3
:100F7000C5E72D4B2D4A68212D4801F07DFA002C44
:100F80003BD02B681B7B9C4237D82D4BE3181B01B1
:100F9000AA68944663440099019A19605A60089AB5
:100FA0009A60099ADA602E68002C2CD031D0337BFD
:100FB0009C422ED863001B19033B3268944663445D
:100FC00000229A705A701A70717B22003000FFF76D
:100FD00061FF7073844200D093E7287D009A019BE3
:100FE00000F00EFD061E02D04B46002B17D00C9BC6
:100FF000002B00D185E71E7083E7124B124A3C217B
:101000000E4801F039FA114B114AA521084801F0A8
:1010100033FA054B054A6821054801F02DFA286886
:10102000210000F027FFE2E7E45100101450001007
:1010300000520010D85000108C5000108C5200103C
:10104000FFFFFF0F10530010545000108852001083
:1010500034500010F0B5DE4657464E464546E0B5E2
:101060008BB00990002308938200B54BD658370007
:1010700052E0B44BB44A3F21B44801F0FDF9B44BFF
:10108000B44A3C21B44801F0F7F9002B01D1002A01
:1010900068D10021604600F0E3FEA04219D12A6821
:1010A0006B6806920793AB689846EB689A4643468E
:1010B000002B14D0002C18D03B681B7B9C4214D80A
:1010C000631EFA68D35C08931B0218433861002042
:1010D00015E0A24BA24A8E219F4801F0CDF9A14B09
:1010E0009F4A92219C4801F0C7F9994B9E4A4121A1
:1010F000994801F0C1F900239A46984600207B6880
:10110000BFF35F8F00221A6086F310884346002BDE
:1011100031D1002800D10BE100F0E8FB0029A8DB69
:1011200000230024069307947A68EFF3108672B6C2
:101130001368002BFCD0BFF35F8F3B689C465C7B41
:10114000002CD8D09BD01B7B9C4298D8874BE518AD
:101150002D01BB68984645442A686B68121A8B417A
:10116000002B92DD2A686B68099800F049FC002387
:101170009A469846C3E7089B1B022343994651466B
:101180001800C04705000E007A68EFF3108B72B6A6
:101190001368002BFCD0BFF35F8F002E1FDB002EE7
:1011A00047DD3B69002B48D04B4570D100F09EFBDA
:1011B000002972DB2A00330012184B41002B72DB2E
:1011C000002B74DB002104910131039102945146FC
:1011D0000191414600913800FFF77CFE4EE03B69EB
:1011E000002BDCD04B4514D1069A079B521BB34110
:1011F000002B14DB002B16DB00210491013103913D
:10120000029451460191414600913800FFF762FE79
:1012100034E0574B524AA1214F4801F02DF90122E9
:101220005242544BE6E7474B474A3F21474801F0BB
:1012300023F9002E01D1002DB3D13B68002C52D0F0
:101240005A7B944239D10122002A4CD1DA7B002A00
:101250004FD19A7B002A03D1DA7B002A5CD19C73A0
:10126000DC73002C5ED03B681B7B9C425AD8013C4F
:10127000FB689C46644423780133237000233B6160
:101280007A68BFF35F8F13608BF3108844E7384BA5
:10129000334AA421304801F0EFF82A4B2A4A3F2173
:1012A0002A4801F0E9F801225242324B88E7254BE7
:1012B000254A3F21254801F0DFF8002C0DD01A7B8C
:1012C00094420AD862001219033A19688C466244A3
:1012D0009278002AB8D00122B6E7274B274A682126
:1012E000274801F0C9F8274B274AF621244801F086
:1012F000C3F8002A0AD0197B8A4207D851008A18FD
:10130000033A19688C4662445470A2E71A4B1B4A90
:1013100068211B4801F0B0F81C4B1B4AFB21184800
:1013200001F0AAF80A4B104A41210B4801F0A4F839
:101330000BB03CBC90469946A246AB46F0BDC046B9
:10134000B4050020644F0010FC4F0010804F0010C7
:1013500010530010545000108C5200100051001017
:10136000A45000101851001060500010FFFFFF0F34
:1013700024510010FFFFFF7FE451001014500010B3
:1013800000520010605100104450001084510010B1
:1013900010B50C4B5B68002B04D00A210A48FFF7FC
:1013A0008DFC10BD074C2300084A1021206800F076
:1013B00065FC032000F08EFA03212000FFF7BAFC41
:1013C000EBE7C04674030020C8050020750D00102F
:1013D00010B5064B5B68002B01D0044810BD044BD0
:1013E000044A5E21044801F047F8C0467403002017
:1013F000C0510010745000108C520010F0B5D64649
:101400004F464646C0B588B0804616001F00109B68
:10141000994612AB1B789A461F236B4400221A7020
:101420002CE0002809D042461268127B904204D872
:10143000421E4146C9688A5C3CE03C4B3C4A412123
:101440003C4801F019F80020002B67D05346002BD0
:1014500064D01199C84704000D0003000B4363D00A
:10146000002939DB00F042FA002945DB24184D4100
:10147000002D47DB002D49DB26002F0043465A682C
:10148000EFF3108472B61368002BFCD0BFF35F8FAC
:101490001F236B440493002303930293119B019336
:1014A0004B46009332003B004046FFF713FD031EFE
:1014B000B7D1020041464968BFF35F8F00250D6038
:1014C00084F31088002B27D01F236B441B78002B3C
:1014D000B9D112021043B7E7361BAF41002F07DB2B
:1014E000002FCBDA144B154A3F21154800F0C4FFFA
:1014F00001267642134FF3E70F4B104A3F21104865
:1015000000F0BAFF012464420E4DB3E70A4B0B4AC8
:101510003F210B4800F0B0FF0120404208B01CBC46
:1015200090469946A246F0BD0020F7E71053001000
:10153000605000108C520010644F0010FC4F0010DF
:10154000804F0010FFFFFF7F70B50400002961D0BD
:101550004268EFF3108572B61368002BFCD0BFF31E
:101560005F8FCEB22268537B9E421BD101200028A0
:101570004AD023698B422DD0090ACBB2002E30D03D
:101580002168097B8E422CD8711EE068415C99422B
:101590002DD000206368BFF35F8F00221A6085F3AF
:1015A000108870BD002E0DD0137B9E420AD87300A8
:1015B0009B19033B1068844663449B78002B07D13A
:1015C0000020D4E7144B154A6821154800F054FF59
:1015D0000120CCE72C21134B134AFF31134800F0B4
:1015E0004BFF134B134A4121104800F045FF3100D7
:1015F000100000F03FFC0028CCD199210E4B0A4A84
:1016000049000A4800F038FF23698B42C2D1002309
:101610002361BFE70020C4E7E4510010145000101C
:101620000052001098510010C05000108C52001051
:101630001053001060500010BC510010F0B587B07E
:1016400006000F00EFF30583002B1ED10624644231
:10165000E517A4197D418D4202D803D1844201D9F6
:1016600000240025002D13DB0494059500F03EF9BD
:10167000002913DB241A8D41002D17DC14D0300013
:10168000390000F03FF907B0F0BD234800F08EFFAD
:10169000224B234A3F21234800F0EEFE1F4B204AF5
:1016A0003F21204800F0E8FE002CE8D0FFF790FE34
:1016B0000023029301931C4B0093049A059BFFF7B0
:1016C0009DFE002818DADAE7002300E00023002B53
:1016D000D5D1164B1A68EFF3108172B61368002B40
:1016E000FCD0BFF35F8F114B1B68BFF35F8F0022ED
:1016F0001A6081F3108820BF0499059A0C4B5B6A2D
:101700009A42E3D80A48806A884203D29A42DBD0E0
:101710000123DCE70123DAE7C0520010644F001018
:10172000FC4F0010804F0010050D0010C805002070
:101730000040054070B504000D0000F0D7F8002906
:1017400008DB0019694100290ADB00290CDBFFF7DF
:1017500075FF70BD074B084A3F21084800F08CFE1A
:10176000012040420649F0E7024B034A3F2103486B
:1017700000F082FE644F0010FC4F0010804F0010FC
:10178000FFFFFF7F10B5FA2292000023002102F034
:1017900035FEFFF7CFFF10BD70B584B005000C001B
:1017A000EFF30583002B12D0244B5B6A994209D8D2
:1017B000224A926A824208D2994201D0012002E074
:1017C000002000E0002004B070BD0120FBE7FFF71F
:1017D000FFFD002302930193194B00932A0023007D
:1017E000FFF70CFE061E11DC144B5B6A9C4209D805
:1017F000124A926AAA4207D29C4201D00120E2E733
:101800000020E0E70020DEE70120DCE720BFFFF753
:10181000DFFD3100FFF798FE084B5B6A9C4209D858
:10182000064A926AAA4207D29C4201D00120CAE726
:101830000020C8E70020C6E70120C4E700400540BB
:10184000050D001070B5EFF305801038EFF310842C
:1018500072B61A4B1B68002BFBD0BFF35F8F0122BF
:101860001300834016494B6316490B6016490978EB
:101870000D00C5402A4214D0114A556A8200134E09
:101880009259954206D38200114D525999430E4BFD
:10189000197007E00A4A031D9B00995899500022CD
:1018A00000E00022BFF35F8F044B0021196084F336
:1018B0001088002A00D0904770BDC046280100D093
:1018C000004005403C700540EA050020CC050020A2
:1018D0001C05002010B50100024A0348FEF7B0FFC6
:1018E00010BDC04668530010E8050020044B596A3B
:1018F00000E01900024B986A5B6A9942F9D170477F
:1019000000400540074B5B6A8B4204D2054B5B6A83
:10191000FAE7044B5B6A8B4203D1024B9B6A83421A
:10192000F7D370470040054070B504000D00FFF785
:10193000DDFF02000B0020002900801859418B4276
:1019400002D804D1824202D901204042C1170029A5
:1019500002DBFFF7D7FF70BD024B034A3F2103486C
:1019600000F08AFD644F001034530010804F0010C7
:1019700070B504000D00EFF3108672B61B4B1B68A8
:10198000002BFBD0BFF35F8F002D1CD02000FFF792
:101990000BF8174B98420BD019002000FFF70CF8FA
:1019A00001212000FEF7F8FF0123A340114A136034
:1019B000A400114BE550BFF35F8F0C4B00221A605F
:1019C00086F3108870BDA2000B4B0021D15001227C
:1019D000A2400A490B7893430B7005492000FFF79A
:1019E00015F800212000FEF7D7FFE4E7280100D01A
:1019F00045180010386005401C050020EA0500204D
:101A0000F0B5DE4600B584B00500140001921E005A
:101A10000293FFF76BFF03948E4202D84ED18442AB
:101A20004CD9EFF3108B72B6274B1B68002BFBD001
:101A3000BFF35F8F254A17780124AC40E3B23B43E4
:101A40001370234B5C632A1D92000199D150AA00A8
:101A50002049029850501B6A234212D11C4B1B6C28
:101A6000234208D00020BFF35F8F174B00221A607B
:101A70008BF3108823E0184B184AC521184800F052
:101A8000FBFCFFF733FF8E4214D802D1039B834245
:101A900010D80E4B1B78BB420ED00D4B1C625C6302
:101AA0001F222A40012393400E4A1360074B1F70E8
:101AB0000120D8E70020D6E70120D4E7012004B0B8
:101AC00004BC9346F0BDC046280100D0EA050020C2
:101AD00000400540CC0500208C5300104C530010F2
:101AE000B053001080E200E010B5EFF3108472B63E
:101AF0000A4B1B68002BFBD0BFF35F8F0123834091
:101B0000074A136207490A789A430A70BFF35F8F46
:101B1000024B00221A6084F3108810BD280100D007
:101B200000400540EA05002010B500291ED0037BC7
:101B300099421BD84B005B18033B0468A4466344DE
:101B4000002919D0002A1DD0914221D0002A25D089
:101B5000047BA24222D80468500080180338201861
:101B60008170197800291FD11A7010BD104B114ACD
:101B70006821114800F080FC104B114A6F310E486B
:101B800000F07AFC0F4B0E4A70210B4800F074FCF9
:101B90000D4B0B4A7121084800F06EFC044B054ABE
:101BA0006821054800F068FC41701A70DDE7C04606
:101BB000E4510010F0530010005200104852001081
:101BC000FC530010545200106052001070B5060013
:101BD0000D001400002914D0002A14D08068736806
:101BE0009847002806D0220029003000FFF79CFF0C
:101BF000280007E02A0021003000FFF795FF2000B1
:101C000000E0100070BD0800FCE7000010B50023E4
:101C1000437301338373037BC3730123027B9A42B3
:101C200014D9002B0CD0027B934209D85A00D21849
:101C3000033A01688C4662440133DBB25370EDE72E
:101C40000B4B0C4A68210C4800F016FC002A09D006
:101C5000924207D8016853009A18033A8A18002361
:101C6000537010BD024B034A6821034800F004FC86
:101C7000E4510010F05300100052001010B5017331
:101C800042608360FFF7C2FF10BD000070B5040022
:101C9000002901D1080070BD002934D0037B99428E
:101CA00031D84B005B18033B0268944663445A7872
:101CB000002AEFD02DD0037B9A422AD853009B18DC
:101CC000033B0068844663445D7800205870002917
:101CD00025D0237B994222D84B005B18033B206818
:101CE00084466344002058702000FFF76FFF060011
:101CF00029002000FFF7CAFF020031002000FFF793
:101D000065FF0100C6E7094B094A6821094800F050
:101D1000B3FB064B064A6821064800F0ADFB034BB7
:101D2000034A6821034800F0A7FBC046E4510010B5
:101D3000F05300100052001070B505000C001600A2
:101D400000292FD034D0037B994231D84B005B1847
:101D5000033B0268944663445A78002A2ED19A784D
:101D6000002A31D11978FFF791FF0300002E0AD025
:101D7000EA7B002A2ED1AA7B002A03D1EA7B002A23
:101D80003BD1AC73EC73002B3DD1002C4FD02B7B9F
:101D90009C424CD82A6863001C19033C1419002388
:101DA000637070BD254B264A3821264800F064FB3D
:101DB000254B264A6821264800F05EFB254B204A29
:101DC0003A21204800F058FB234B1D4A3B211D4877
:101DD00000F052FB002A0AD0297B8A4207D8510022
:101DE0008A18033A29688C4662445470C3E7164B3C
:101DF000164A6821164800F03FFB184B104A422152
:101E0000104800F039FB002B0BD02A7B934208D8F6
:101E100043001B18033B2A689446634400229A70CF
:101E2000B3E7094B094A6821094800F025FB064B36
:101E3000064A6821064800F01FFBC0465C540010AB
:101E40001054001064540010E4510010F0530010BE
:101E50000052001098540010C0540010845100101B
:101E600070B504000A00457B2900FFF765FF607329
:101E7000280070BD10B50400002966D0437B8B425A
:101E80000ED0002911D0037B99420ED84B005B186D
:101E9000033B0268D0188378002B0CD1002055E05A
:101EA0000121FFF7DDFF012050E0294B294A68217D
:101EB000294800F0E1FA002B1FD0227B93421CD866
:101EC0005A00D318033B2268D21813788B421AD0D9
:101ED000002B1BD0227B934218D85A00D318033B07
:101EE0002268D21853788B4216D0002BF0D11B4BAE
:101EF0001B4A6B211B4800F0BFFA154B154A68219D
:101F0000154800F0B9FA4378137007E0104B114AF6
:101F10006821114800F0B0FA4378537000238370B1
:101F2000437001222000FFF707FF0200617B81421E
:101F300005D02000FFF74AFE6073012006E00A4B3F
:101F4000074A7121074800F097FA002010BDC046EB
:101F5000E4510010F053001000520010084E001021
:101F600024540010645400103C54001070B5046BED
:101F7000E30701D4200070BD02003032C0239B0172
:101F800013430A4A1A60456A826AAD01AD18AD0270
:101F9000062000F0B9F9064901F0F4FB0100280021
:101FA00001F0F0FB0021FFF7BFFCE3E701030000B5
:101FB0004E0E000070B504000E001500FFF7D6FFAE
:101FC00022002C32E36A5E40354080235B011343DC
:101FD0001D60206370BD000070B506000C00062077
:101FE00000F092F9C000210001F0CCFBC50908D037
:101FF0000E4B9D4216D87F23184001302C00450817
:1020000000E001247462B562002200213000FFF775
:10201000D1FF062000F078F98000A101491901F0F4
:10202000B1FB70BD0025024CECE7C046FEFF00008E
:10203000FFFF000010B505394901013AD2001143F4
:10204000002B09D002220A43012B07D000211143A3
:102050006E22FFF7AFFF10BD0022F4E70421F6E780
:10206000002909D00A22064B9C466044434258414D
:102070004000044BC252704780225200F3E7C04632
:102080000080FCBF1C06002070B505000C00062077
:1020900000F03AF9061E27D0164B9D4226D080222A
:1020A000D203154B1A60154B1A60154B9B68110033
:1020B0009943FAD100212800FFF7D2FF2100280020
:1020C000FFF78AFF06000023012208212800FFF7FE
:1020D000B1FF2A002C3280239B01134310221A6087
:1020E000084B2B630323AB64300070BD80221204C5
:1020F000D7E7C0460080034000E0004000F0004009
:1021000000C0004001030000F0B5DE46574680B530
:1021100083B007000E0092460A9A93424ED3190EDE
:1021200001911B02180000930A9A002301F068FB3A
:1021300005007B00DB199C002E4B9C4664446368C1
:10214000834200D260603B1FDBB29B46012B3BD930
:10215000C0239B012343802212011A60BB00264A40
:102160009958002907D0506901F00CFB431C580016
:10217000C0180338FDD253465B0122685340E02269
:10218000134080225201224313605B46012B26D963
:1021900080239B012343802212011A6065602A007C
:1021A00000230098019901F02BFBBF00124BF8505F
:1021B000012003B00CBC92469B46F0BD0F4B104A69
:1021C0003321104800F058F9012EC1D1C0239B01E2
:1021D000234303221A60A368DB07FCD5CBE7216801
:1021E000714003230B401360A3680122B2401A42DE
:1021F000FAD0CDE70080004034050020F4540010F0
:10220000E45400100855001030B583B00C2000F0E5
:1022100011F9FEF7F5FA00280DD00023092B05D897
:1022200099002D4A2D4888500133F7E72A4B2C4A54
:102230005A6203B030BD2B4B00229A6700F002F9BE
:10224000294B01221A60274B5B6C012BFBD1274BDA
:1022500003221A60234B9B6B012BFBD101330093AC
:102260000433234A0121234800F054F80523009346
:10227000214A0121214800F04DF8214B0093002212
:1022800002210420FFF740FF1E4D00952B00002285
:1022900001210520FFF738FF104C00942300002295
:1022A00000210720FFF730FF0094230000220021C7
:1022B0000820FFF729FF0A4B00932300002200218A
:1022C0000920FFF721FF00952B00002200210620A6
:1022D000FFF71AFFADE7C04634050020006CDC02B2
:1022E0001BB70000008000403CB0004030B0004010
:1022F000002F685900800240008C864700C00240D1
:10230000001BB700405973078000014BC05870474D
:1023100034050020F0B583B005000C0017001E0046
:10232000374801F02FFA0190364BFA18364B9A4293
:1023300039D80199380001F025FA0200103A9823A3
:102340005B009A4235D8731E062B38D8089B013B98
:10235000062B34D83A09019B9A4236D33304089AA3
:1023600016031E432B68002B35DB284B9D4243D0C0
:1023700080214901264B1960264B1960264A926834
:102380000B009343FAD12C60A8602A1DC0239B0147
:10239000134321221A602A68002AFCDAEE60082220
:1023A0001A6003B0F0BD1D4B1D4A11211D4800F0FD
:1023B00063F81D4B1A4A19211A4800F05DF81B4BAF
:1023C000174A1C21174800F057F8194B144A2321CB
:1023D000144800F051F82A683F231340A342C4D1A7
:1023E000AB681B051B0D8342BFD1EB68EE22D20206
:1023F0001340B342B9D1D4E780218901BAE7C0467E
:10240000001BB70080E84BD380F8A93200C002401F
:1024100000E0004000F0004000C0004054550010B3
:1024200048550010B4550010F05500100C5600101F
:102430005856001080239B000343014AD362704723
:1024400000800540064BAA2212011A602F22DA6092
:10245000044B054A1A60024B5B68002BFBDA70479D
:10246000004002400060024000B0FA0000BEFDE7FC
:1024700010B5FFF7FBFF000010B582B00C0019008B
:10248000002A0CD0084B002A0BD0019200932300A5
:102490000200064802F0C2F90120FFF7E7FF044BF3
:1024A000F1E7034AF1E7C046745600108456001065
:1024B0008056001070B52B4B2B4A1A602B4B2C4AC0
:1024C0001A602C4B9A682A4B9343FAD12A4C01E0AC
:1024D00008CC9847294B9C42FAD3FFF795FE234B33
:1024E000274A1A60234B9B68DB43DB01FAD1254B5B
:1024F00040229A675A671A67DA66234C09E0234B31
:10250000234A87212348FFF7B7FF2000FEF7DEFBB1
:102510000834214B9C4209D22368002BF5D0012BB3
:10252000EDD12000FEF7DFFB0834F2E71B4CA16879
:102530001B4DC022280002F01BF8A560EFF30583B5
:10254000002B00D000BEFEF795F9FEF7A9FBFEF7C1
:102550001FFF144C01E008CC9847134B9C42FAD360
:1025600070BDC04600E00040BFCDFBFE00F0004063
:10257000FE7F3C0000C00040E8030020F80300207C
:10258000FFFFFF0100F00140D8030020D8560010E3
:10259000B4560010F8560010E803002000ED00E0EB
:1025A00000000020F8030020FC0300200FB400B559
:1025B00083B0084802F002F9049B002B07D005A95C
:1025C0000191180002F00AF9034802F0F7F801201F
:1025D000FFF74CFFC4560010D4560010704710B5DA
:1025E000002802D00B684968984710BD10B5040058
:1025F000002321680A78303AD2B2092A08D8980014
:10260000C31858004B1C23600B781B18303BF0E7B5
:10261000180010BDF0B5D6464F464646C0B582B04C
:1026200005000091904601930A9B99460B9C0C9ED5
:102630000D9B9B070CD04E460C9B9946002C19D045
:10264000013C571C305D019B0099A8473A00F5E713
:102650002700A246B74207D2541C019B00992020B4
:10266000A84701372200F5E754460C964E460C9BCE
:102670009946E3E74E460D9B9B0706D4100002B037
:102680001CBC90469946A246F0BD4746D31BB342B8
:10269000F4D2541C019B00992020A8472200F5E7A2
:1026A000F0B5CE4600B586B0049205930C9D0D9C06
:1026B0000EAE33789946109F119B129EB2071BD421
:1026C000002B08D0F20706D54A46002A02D10C3268
:1026D000324200D0013BBC4208D21F2C06D8302227
:1026E0002A550134F7E730222A550134F20703D581
:1026F0009C4201D21F2CF6D9F20615D5720505D4DD
:10270000002C03D0BC4223D09C4221D00F9A102A27
:102710002AD00F9A102A2FD00F9A022A34D01F2CB9
:1027200002D830272F5501341F2C05D84A46002ADD
:1027300030D02D272F550134039602930194009534
:10274000059B049AFFF766FF06B004BC9146F0BDF6
:10275000671E002F06D00F9A102A01D03C00D5E743
:10276000023CD3E73C00D1E7B206D2D41F2CD0D82C
:1027700078272F550134D2E7B206CDD51F2CCBD800
:1027800058272F550134CAE71F2CC8D862272F5568
:102790000134C4E7720703D52B272F550134CBE74B
:1027A0003207C9D520272F550134C5E7F0B5CE46ED
:1027B000474680B595B0089009910A920B931CABDF
:1027C00010CB1B7898461E9D219B9946002C03D167
:1027D00010234A469A4391468027FF004B461F40EC
:1027E00018D0002C22D0002714E04A4692061BD5B0
:1027F0004121C918C9B20A39C9B27E1C0CABD955DE
:102800002900200000F0BEFFAC4210D31F2E0ED8CE
:10281000370004002900200000F0B4FFCBB2092BE0
:10282000E3D83033D9B2E8E76121E2E726004B462E
:102830000693209B05931F9B0493039543460293A5
:1028400001960CAB00930B9B0A9A09990898FFF725
:1028500027FF15B00CBC90469946F0BDF0B5DE469A
:10286000574680B597B00A900B910C920D931E9A23
:1028700008921F9C20AB1B789B46229B0993239DAB
:10288000269B9A462243131E03D1103352469A4385
:1028900092468026F60053461E4006D0089A130042
:1028A000234333D0002637001AE0370018E05246A1
:1028B000920621D54122D218D2B20A3AD2B27E1C57
:1028C0000EABDA55099A2B000898210000F098FF0A
:1028D000A5421DD812D01F2E16D8370008900C0024
:1028E000099A2B000898210000F08AFFD3B2092B27
:1028F000DDD83033DAB2E2E76122DCE7099B089ADF
:102900009342E8D9370004E0370002E0002700E0F6
:10291000370053460693259B0593249B0493099BFC
:1029200003935B46029301970EAB00930D9B0C9AA9
:102930000B990A98FFF7B4FE17B00CBC92469B4661
:10294000F0BD0000F0B5D6464F464646C0B594B03F
:102950000A9006910B9207931C9C08941D9D099563
:1029600022002B002000290001F0D5F9002800D01A
:10297000E8E001225242D64B2000290001F0C6F9BE
:10298000002800D0DEE001225242D24B2000290074
:1029900001F0A6F9002800D0D4E000220023089D11
:1029A0002800099C210001F09BF9002800D0DFE0FD
:1029B000089E099F8023DB00209A1A409046131E30
:1029C00001D106331E930C960D973A00324300D185
:1029D000D5E0380D4005400DBF4A944660443A03A7
:1029E000120BBE4B13431D0001F0A8F9BC4ABD4BAE
:1029F00001F033F9BC4ABD4B01F008F90C900D9180
:102A00000022BB4B3000290001F0F7F8B94ABA4B5D
:102A100001F023F902000B000C980D9901F0F6F873
:102A200001F0A4F9824601F089F9B44AB44B0C9044
:102A30000D9101F012F90022B24B01F0E7F801F01C
:102A400095F90500B04AB14B0C980D9901F005F9C4
:102A50000C900D91280001F071F9AD4AAD4B01F0D9
:102A6000FCF802000B000C980D9901F0C6F802006A
:102A70000B000E900F9101F0F0F810901191A64B01
:102A80009C4665442B050D9300230C930E9C0F9DD3
:102A900022002B002000290001F0B8F80E900F91C1
:102AA00022002B0000208021C90501F0A6F8129019
:102AB00013910022994B109C119D2000290001F0D8
:102AC000AEF80022964B01F0A1F802000B002000A6
:102AD000290001F0A4F80022924B01F097F80200BF
:102AE0000B002000290001F09AF802000B00129858
:102AF000139901F08BF802000B000E980F9901F06A
:102B00008EF80022754B01F081F80C9A0D9B01F0B4
:102B1000A4F802000B000C920D9332003B0004005D
:102B20000D0001F0F3F800282BD001235B429C46F6
:102B3000E24400227A4B2000290001F070F80C904A
:102B40000D911EE0209B04931F9B03931E9B0293F9
:102B5000089A099B00920193079B0B9A06990A9881
:102B600000F0F4F814B01CBC90469946A246F0BDA3
:102B70002E0080231B069C46644427001AE700238E
:102B80009A4653466333C62B21D80425209B1B0548
:102B900029D50C9A0D9B1900114310D0624A634B42
:102BA0003000390001F0AAF8002800D182E00022AC
:102BB0005F4B3000390001F093F800287AD01E9B5B
:102BC000534506DD52469C1A631E1E9303E00525FD
:102BD000DCE700231E938023DB00209A1A43209217
:102BE000002500239A461F9B9D426DD25B1B994690
:102BF0000223209A1A40904603D0002D01D00023D2
:102C000099465346002B07D00C9A0D9B3000390093
:102C100001F005F806000F0000220023089809992A
:102C200001F05EF8002800D086E0424B209A134065
:102C300004934B4603931E9B029300960197079BB8
:102C40000B9A06990A9800F081F8002D00D189E7C7
:102C5000209B9B0675D54526471C079B02000699BD
:102C600030000A9EB0475046C217831853400522D1
:102C70000592013D0495002203920A320292C40F8C
:102C800001940093079B3A0006993000FFF78EFDF0
:102C90004346002B00D165E702000A9E0B9C1F9D56
:102CA000131BAB424FD2571C079B06992020B047FD
:102CB0003A00F5E71E9B002B95D04346002B92D09F
:102CC0001E9B013B1E938EE70023994690E7C0466A
:102CD000FFFFEF7FFFFFEFFF01FCFFFF0000F03F72
:102CE000FB799F501344D33FB3C8608B288AC63FFB
:102CF0000000F83F61436F63A787D23F71A3790952
:102D00004F930A400000E03F1655B5BBB16B02403F
:102D1000EF39FAFE422EE63FFF03000000002C4090
:102D200000002440000018402D431CEBE2361A3FFF
:102D300080842E41FFF7FFFF802109067B181F00CA
:102D400073E7652688E710000CE7C046F0B5D64665
:102D5000474680B597B00690079108920993209F47
:102D60001E9A1F9B1000190000F0D5FF002839D1D2
:102D700001225242BC4B1E981F9900F0B1FF00285F
:102D80003FD101225242B94B1E981F9900F0BEFF5D
:102D9000002845D10022B64B1E981F9900F0B6FFBF
:102DA000002856D10022B34B1E981F9900F098FFBF
:102DB00000284ED1002200231E981F9900F090FF9A
:102DC000002856D100239A46229B5B055CD500263D
:102DD0001F2E5BD8092F59D90EAB30229A55013FCF
:102DE0000136F5E7229B0393219B02930323019372
:102DF000A14B0093099B089A07990698FFF70AFCD4
:102E000003E1229B0393219B0293042301939B4B99
:102E10000093099B089A07990698FFF7FBFBF4E0DB
:102E20000423229A134010D0954A002B0FD004237C
:102E3000229903912199029101930092099B089A8A
:102E400007990698FFF7E6FBDFE08E4AEDE70323DC
:102E5000EEE7229B0493219B039302971E9B1F9CEA
:102E600000930194099B089A07990698FFF76AFD59
:102E7000CBE01E9A1F9B0020002100F0BEFE1E909A
:102E80001F9101239A469FE70627A0E71E981F99E6
:102E900000F06CFF040000F051FF02000B001E98D0
:102EA0001F9900F0AAFEFA00774B9B181A685B681E
:102EB0000C920D9300F0D1FE0A900B9100F07AFF76
:102EC000050000F037FF02000B000A980B9900F094
:102ED00094FE0A900B9100226C4B00F017FF002823
:102EE0002CD00135280000F025FF02000B000C98C3
:102EF0000D9900F0FBFE002801D001340025002FC1
:102F00002AD1200000F01AFF02000B001E981F9922
:102F100000F073FE00225D4B0A900B9100F0E0FE82
:102F2000002844D10022594B0A980B9900F0EEFE7C
:102F300000283CD1E3073AD5013438E00022534B56
:102F40000A980B9900F0CCFE0028D8D1002D01D0B2
:102F5000EB07D4D50135D2E70A941F2E11D8013FD3
:102F60000A21280000F00EFC741C30310EAB99557C
:102F70000A21280000F006FC092D0ED905002600C4
:102F8000EBE70A9C1F2E0CD87B1E002F09D00EAA3F
:102F9000302191551F000136F4E7A0460A9C4646B1
:102FA000F0E71F2E03D80EAB2E229A5501361F2EA6
:102FB00010D80A21200000F0BDFB751C30310EAB8B
:102FC00099550A21200000F0B5FB041E01D02E0007
:102FD000EDE72E000323229A1340012B1AD01F2E57
:102FE00006D85346002B2FD00EAB2D229A55013612
:102FF000229B0393219B029301960EAB0093099BA6
:10300000089A07990698FFF705FB17B00CBC904685
:103010009A46F0BD219B002B0AD05346002B02D1CB
:103020000C3313420ED0219B013B2193190000E089
:1030300021998E42D3D21F2ED1D80EAB30229A5571
:103040000136F6E72199F4E7229B5B0704D50EAB26
:103050002B229A550136CBE7229B1B07C8D50EAB16
:1030600020229A550136C3E7FFFFEFFFFFFFEF7FF6
:1030700065CDCD4165CDCDC1245900102859001032
:103080001C59001018590010305900100000E03F82
:10309000F0B5DE4657464E464546E0B593B083460A
:1030A0000B910A921193002900D1E6E200275C46B9
:1030B000119B1878002800D1E2E2252809D07D1C58
:1030C0000A9B3A000B99A047119B013311932F00E3
:1030D000EEE70133119300261DE00B00303BDBB21D
:1030E000092B37D92A293AD000239B46119B1A78FD
:1030F0002E2A44D000239846119A1378683BD9B2FF
:10310000122900D980E08B00CB49CB589F46012380
:103110001E4301321192119A11780B00203BD8B254
:103120001028DAD88300C548C3589F4602231E439F
:1031300001321192EFE704231E4301321192EAE7B4
:1031400008231E4301321192E5E710231E4301328A
:103150001192E0E711A8FFF749FA8346C6E71C9BE6
:103160001A1D1C921B68002B04DB9B46119B01332C
:103170001193BBE7022216435B429B46F6E780228F
:10318000D20016435A1C11925A781300303BDBB21E
:10319000092B04D92A2A07D000239846ACE711A8A6
:1031A000FFF724FA8046A7E71C9B1A1D1C921B6898
:1031B000002B04DB9846119B013311939CE70023FD
:1031C000F8E780235B003343511C119152786C2A3D
:1031D00001D01E0018E0C0239B001E430131119155
:1031E00012E080233343511C11915278682A01D098
:1031F0001E0009E0C0231E430131119104E0802329
:103200005B001E4301321192119B18780300253B8D
:10321000DAB2532A00D926E29300894AD3589F464E
:1032200080239B001E4301321192EDE780235B0057
:103230001E4301321192E7E7782809D0582838D088
:103240006F2838D0622838D010239E430A2500E02A
:103250001025582833D0692803D0642801D00C22C7
:103260009643730501D50122964369282AD0642824
:1032700028D0B30500D59FE0F30500D5B8E073066C
:1032800000D4CAE01C9A111D1C911168FF220A404B
:1032900005965B46049343460393029500230193EE
:1032A00000920A9B3A000B992000FFF77FFA070073
:1032B00027E01025CDE70825CBE70225C9E7202226
:1032C0001643C8E7B30520D4F30550D4730666D57A
:1032D0001C9A111D1C911168FF220A40D317D118A6
:1032E000594005965B460493434603930295D20FDB
:1032F000019200910A9B3A000B992000FFF756FAC1
:103300000700119B01331193D2E61C9BDA1D0721A4
:103310008A43110008311C91116853689C46DB17E1
:103320000C930D930C9A0D9B100048400E90624632
:1033300053400F930E980F990C9A0D9B801A994148
:103340000E900F9108965B460793434606930495AB
:10335000002305936346DA0F0292009001910A9BC5
:103360003A000B992000FFF779FA0700C9E71C9A89
:10337000111D1C911268D317D118594005965B4650
:103380000493434603930295D20F019200910A9B46
:103390003A000B992000FFF709FA0700B1E733065E
:1033A00005D51C9A111D1C910023D25E96E71C9A2C
:1033B000111D1C91126891E71C9BDA1D07218A439D
:1033C000110008311C9108965B460793434606930B
:1033D00004950023059302935368126800920193A9
:1033E0000A9B3A000B992000FFF738FA070088E79C
:1033F0001C9A111D1C9105965B460493434603934A
:10340000029500230193136800930A9B3A000B99DD
:103410002000FFF7CBF9070073E7330606D51C9AA7
:10342000111D1C9112681204120C31E71C9A111D17
:103430001C9112682CE7C0463857001084570010C2
:10344000C857001046281AD01C9B07330722934305
:103450001A0008321C9204965A460392424602927F
:103460001A685B68009201930A9B3A000B9920004E
:10347000FFF76CFC0700119B0133119318E6202322
:103480001E43E1E7672801D0472802D180231B01B2
:103490001E43452801D0472801D120231E431C9BF1
:1034A0000733072293431A0008321C9204965A46A7
:1034B0000392424602921A685B68009201930A9B4B
:1034C0003A000B992000FFF73DFA0700119B0133EA
:1034D0001193EDE5022333409A461ED001261C9B32
:1034E0001A1D1C927D1C18780A9B3A000B99A04764
:1034F0005346002B15D1119B013311932F00D7E5B3
:10350000551C0A9B0B992020A04733002A005E1C03
:103510009F42F5D8BB461700E1E701233A005F461A
:10352000F5E72A00A0465C4606E0571C0A9B0B996B
:103530002020C0472E003A00751CB442F5D8150073
:103540004446D8E71C9B1A1D1C921B689A464346AA
:10355000002B00D1013B55462A78002A05D05A1E7F
:10356000002B02D001351300F6E75346ED1A8023F5
:10357000DB003340994602D0454500D94546022339
:103580003340109308D03A00564629004D46230098
:103590004446984689461FE03A0023005C469B4615
:1035A00006E0571C0A9B0B992020D84735003A00AB
:1035B0006E1CAC42F5D835005B46A3465646290042
:1035C0004D4644469846894606E01C000136571C85
:1035D0000A9B0B99C0473A003078002804D0002D90
:1035E000F4D0631E002CF0D117004D464446109BCA
:1035F000002B03D1119B0133119359E55C4606E082
:10360000571C0A9B0B992020C04735003A006E1CBE
:10361000AC42F5D817004446ECE7212333431C9A0B
:10362000111D1C91126800920593082304934346D0
:10363000039310230293002301930A9B3A000B99F2
:103640002000FFF7B3F80700119B013311932FE51A
:103650007D1C0A9B3A000B992520A047119B013342
:1036600011932F0024E57D1C0A9B3A000B99A0477B
:10367000119B013311932F001AE50B4B9B4615E567
:10368000A3460A9B9F420CD35A1E0A9B0B9900200B
:10369000D847380013B03CBC90469946A246AB468A
:1036A000F0BD3A00F1E7C046DD25001000B585B059
:1036B000029003910121009313004A4202A902489B
:1036C000FFF7E6FC05B000BDDF250010014804212E
:1036D000014B1847A0030020FD36001010B5010073
:1036E00018231B8814221088984710BD10B50100BC
:1036F00018231B8816221088984710BDF0B5C646BF
:1037000000B507000E0000250123984600E00135B2
:10371000B5420AD2AC003C192068FFF7DFFF2060F9
:103720000028F4D100239846F1E7404604BC9046B7
:10373000F0BD0000124A936F9B0815D29066D166C7
:10374000002905D0FFE7FFE7FFE7516F106F7047D3
:1037500004B580210906C2175140002800D0C84393
:1037600001F06AFA002104BDF0B5146E556E576F72
:10377000166FFFF7E3FF1466556657671667F0BDCF
:10378000000000D0114A936F9B0813D21066516657
:10379000002905D0FFE7FFE7FFE7516F106F704783
:1037A00004B5002801D00020C04301F045FA0021F3
:1037B00004BDC046F0B5146E556E576F166FFFF717
:1037C000E5FF1466556657671667F0BD000000D028
:1037D00094464A4A926F9208624601D228E0C04657
:1037E000F0B5464E346E756E776F366F00F020F888
:1037F0009446424A14665566576716676246F0BD9E
:1038000094463E4A926F9208624601D254E0C04606
:10381000F0B53A4E346E756E776F366F00F04CF837
:103820009446364A14665566576716676246F0BD79
:10383000002B24DB11D000293EDA00B5C9434042F9
:1038400000D1013100F038F8C943404200D10131C4
:10385000DB43524200D1013300BD002AEBD10028E6
:1038600001D1002905D00020C90FC90701D1C043EB
:10387000410800B501F0D0F90022002300BD00B5D9
:1038800000290ADBDB43524200D1013300F014F877
:10389000C943404200D1013100BDC943404200D17B
:1038A0000131DB43524200D1013300F005F8DB4324
:1038B000524200D1013300BD002923D1002B18D181
:1038C000002A0CD0BC460D4F38667A6600210023D2
:1038D000FFE7FFE7FFE77A6F386F6746704700281A
:1038E00001D00748010000B501F096F9002200233D
:1038F00000BD02000B00002000217047000000D036
:10390000FFFFFFFF002B00D0BFE0130C28D1002ADF
:10391000E7D080B4114F39667A66FFE7FFE730B42D
:10392000040C7B6F396F1B0423433B667A66FFE709
:10393000FFE7FFE7C04684B27B6F3D6F1B04234364
:103940003B667A66FFE7FFE7C04600232C042D0C98
:103950007A6F386F00196941B0BC7047000000D021
:10396000F0B594460025140E01D112020835140F4B
:1039700001D112010435940F01D192000235D40F08
:1039800001D152000135D40B0134254F7C66254C02
:103990003C660E0C93B2FFE7FFE7FFE73C6F664320
:1039A000360C7703BE467343DF0B5B04C01AB94184
:1039B000130C7343DB18C91ACE086643360CB644A1
:1039C00093B273431F0F1B01C01AB941130C734309
:1039D0001F0B1B05C01AB941860D8F023E4366437B
:1039E000360C092D24DB520A7243801A7703460AEB
:1039F0006643360C16235B1BDE40DF40BF1964466E
:103A00006643821B7046043506330100D940A84046
:103A1000C01900D30131A24206D20023F0BD00003C
:103A2000000000D0FFFFFFFF121B0130F3D3F1E7CE
:103A300009277F1BFE406446A2B27243801A00D25F
:103A40000139220C7243130C1204821A99410B00A3
:103A50007046043513370100F940A840801900D39F
:103A60000131002B02D1A2420AD2F0BD013000D3B5
:103A70000131121BFAD2013BF8D1A24200D2F0BDB3
:103A8000013000D30131121BF7E7F0B51C0C00D058
:103A900080E00CB400251C0A04D11B02160E33432F
:103AA000120208351C0B04D11B01160F33431201FF
:103AB00004359C0B04D19B00960F334392000235D2
:103AC000DC0B02D192185B4101351C009718644150
:103AD0000134464F7C66464C3C660E0CFFE7FFE720
:103AE000FFE7C0463C6F6643360C7703BE4697B28D
:103AF0007743C01B00D20139C01B00D201399FB2ED
:103B00007743C91BC91B170C77437E04FF0B801B2F
:103B1000B941CE086643360C0C2D33DBB644120B8C
:103B20001F053A431B0B97B27743C01B00D20139E4
:103B30009FB27743C91B170C77433E043F0C801B91
:103B4000B941860D8F023E43664329277F1BFE4005
:103B50000C3D7746AF40BF1930BCA2B2ABB2724346
:103B60007343801A9941220C7243130C1204801A79
:103B7000994102000B000137001BA941F9D2781EC0
:103B80000021F0BD0C277F1BFE4077467F0BAF4026
:103B9000FF19E0E700245D1C07D0144F7D663966ED
:103BA000FFE7FFE7FFE7FFE73C6F95B29EB2654393
:103BB0006643401BB141150C1E0C65436643360439
:103BC0002F0C3E432D04401BB141994204D2020008
:103BD0000B0020000021F0BD01D19042F7D3801AE4
:103BE000994101349942F2D3F6E70000000000D079
:103BF000FFFFFFFF48404140484018B41B4B5B6843
:103C0000FC46019308BD04DFCF3E001018B4174BEB
:103C10001B68FC46019308BD00DFD93E00109446A6
:103C2000134A926F920809D2624618B40F4BDB68B0
:103C3000FC46019308BD0CDF914100100C4AF0B521
:103C4000146E556E576F166F6246FFF7EEFF084A07
:103C50001466556657671667F0BD18B4034B9B682A
:103C6000FC46019308BD08DF354000102006002007
:103C7000000000D0FFB550404240504059404B40FA
:103C8000594000E0FFB5154F4C00640D03D0BC4215
:103C900004D10C0314D80020090D09055C00640D43
:103CA00003D0BC4204D11C030AD800221B0D1B0503
:103CB00001264B4009D44B4003D58B4200D18242B0
:103CC000FFBD9942FCD19042FFBD0B43DB1803437B
:103CD0001343F5D0C9434918FFBD0000FF0700009A
:103CE00000B5FFF7CFFF804100BDC04600B5FFF72C
:103CF000C9FF01D9002000BD012000BD00B5FFF7BC
:103D0000B9FF01D9002000BD012000BD00B5FFF7BB
:103D1000B1FF804100BD012040054A00121804D8BF
:103D20005A00121801D80020704701207047002067
:103D3000704700000021002805D17047C117484096
:103D4000401AFAD0C90713B5064B1B6898470CBC3C
:103D5000441CA2401005120B0349091B0905194315
:103D6000114310BDC40500201F04000010B54C0015
:103D7000620D8023D218DB00D21A5B057E2A10DD8B
:103D80009E3A13DACC170903490819435242D1402D
:103D9000640001341532202A05DAD040084360431C
:103DA00010BD002010BD0846604310BDC80FC018EC
:103DB000013810BD18B4044B5B6AFC46019308BD82
:103DC00024DF4143001000002006002070B51323BB
:103DD0001C78012C0CD0012C13DC022C02DC1F4AB5
:103DE0001F4B9A641F48FFF779FC1F4B186070BD8A
:103DF00000231F2BEFD899001848194A8850013327
:103E0000F7E71A48FFF772FC05001948FFF76EFC48
:103E1000023803789B007F2B19DD8022290010488F
:103E200000F0A6FB022CD8D1124B1A88B5231B0236
:103E30009A4209D1104B1A88104B9A4204D1104B68
:103E40001A88104B9A42C8D00020FEF7AFFB0E4BE9
:103E50000E4A32210E48FEF70FFBC046953E001079
:103E6000200600204C330000C4050020534400000D
:103E70005346000054380000D8380000494600007E
:103E80009C3800005946000080590010185A001054
:103E9000D459001007B56046002800D100BE018843
:103EA0000A0A0230DF2AFAD1C9B2820804D3028892
:103EB00040880004104300E00068024A505003901C
:103EC00007BD0000200600200FB403BC0CBCF0B5F9
:103ED0000124E407634000E0F0B50C0DCF0F661E2F
:103EE0003605891B640503D3C943404200D3013121
:103EF000640D03D0661CF60A07D0E41B00207F0087
:103F0000791C89078912803C24031D0DDF0F6E1E6A
:103F100036059B1B6D0503D3DB43524200D30133AF
:103F20006D0D03D06E1CF60A07D0ED1B00227F003A
:103F30007B1C9B079B12803D2D032F1B661B58D4B7
:103F4000A446202E46DA20371400BC401D00BD4098
:103F5000F24033412A4380185941CB0F05D0C94361
:103F6000C043002264425041514162464D0D28D168
:103F70000D0D07D100281FD0241940414941013AB5
:103F80000D0DF9D0640006D3013000D30131002CAF
:103F900001D140084000013A0BD4941CE40A04D13A
:103FA00012051144DB071944F0BDD907204B194312
:103FB00000E0D9070020F0BD0029DDD1002CDBD1C5
:103FC000F0BD0132C6074008CD0728434908002E3E
:103FD000E1D0D9E73C2E29DA203E40371400BC401E
:103FE00000D00124F24014431A00BB401C43D317F5
:103FF000ACE7AC46202F08DA20360400B4400D00B0
:10400000B540F84039412843A5E73C2F0CDA203F62
:1040100040360400B44000D00124F84004430800B6
:10402000B1400C43C117EAE710001900002494E7DF
:104030000000F07FF0B50C0D661E3605891BE60A00
:104040006405640D02D0651CED0A04D00020012136
:104050000905803C2403A4461C0D671E3F05DB1B9D
:10406000E70A6405640D02D0651CED0A04D0002245
:1040700001231B05803C24037740644497B484B239
:1040800096B27443070C7E43150C6F4380B26843AD
:10409000361802D3012000043F183004350C0019F3
:1040A0007D41844688B29AB250430C0C62431F0C87
:1040B0007C438EB27E43921902D301263604A419A2
:1040C0001604170C3618674101BC81B29AB25143ED
:1040D000040C62431B0C5C4380B25843121802D399
:1040E0000120000424181004130C401863412D18FB
:1040F0005E410020474106BC88B293B258430C0C85
:104100006343120C544389B251435B1802D301211B
:104110000904641819041A0C091862416D185641F3
:104120000020474118BCF902720D1143F0026A0DDC
:104130001043ED020A0D03D16D1940414941013B85
:10414000124E9B1B7600B3420ED26D0007D3013096
:10415000002671416646354301D1400840001B05E9
:10416000C918E4072144F0BD0BDA013306D1013050
:1041700004D101314F0D01D04908F2E7E1070020D9
:10418000F0BD013631050020EBE70000FF03000021
:10419000F0B51C0D671E3F05DB1BE70A6405640DC7
:1041A00002D0661CF60A04D0002201231B05803CC5
:1041B0002403D0252D060026F6432E661E096E66C2
:1041C000CE0FF619B44649004F0D02D07E1CF60AF8
:1041D00003D000200021403F3F033E1BB600B44403
:1041E000013F7F05C91B49082E6F013676089C02E6
:1041F000950D25437543ED137543AD1301356D10D2
:10420000F603761B0CB4CC02450D2C43A2B2B3B21C
:104210005A43270C7B43350C6F43A4B26C431B19E4
:1042200002D3012424043F191C041D0CA4187D4151
:1042300024196D41009A91B2ACB26143170C7C43D2
:104240002B0C5F4392B25A43A41802D301221204EA
:10425000BF182204230C52187B41019C6C431B198C
:10426000520ED9010A434401A01A81B2B2B251439D
:1042700003145A43360C734387B27743D617D219C7
:1042800000277E4136049B191704160C7F185E41E7
:104290007316ED18F301002680337541A90F06D17E
:1042A0006400690AE8055B0A184309D22FE004227A
:1042B000944480337541A90AA8059B0A184326D364
:1042C000404149412404009A019B0D005543641B61
:1042D0004343E41A95B286B27543170C7E43030C30
:1042E0005F4392B25A43B61802D301221204BF1898
:1042F0003204330C52197B4152429C41002C02D4AF
:104300000022013051414008CA071043490802B059
:104310006246D7079210084BD218084B9A4203D234
:1043200012058918C919F0BD0020002A01DC3900E6
:10433000F0BD01331905F5E7FD030000FE0700009D
:10434000002200B5203200F004F8080000BD000093
:1043500000220B150AD410B5944600F031F814145D
:10436000013400DA0021CB17144C20470020002133
:1043700070476244343A0CD40C2A07DA04009140A6
:10438000904052422032D440214310BDD843D943FB
:1043900010BD203207D40C469440524220321141C5
:1043A000D040204310BD0800C917203203D4524228
:1043B0002032104110BD1800190010BD73430010C9
:1043C0000A0DCC0F531E1B05C91A520503D3C9434E
:1043D000404200D30131520D03D0531CDB0A07D0F9
:1043E000121B00206400611C89078912803A1203A5
:1043F000014BD21A70470000FF03000051434343B2
:10440000C9188C46110C83B24B4310B4040C6143A1
:1044100092B280B2504362431C041B0C001910BCC2
:1044200059411304120CC0185141614470470000F7
:1044300070B513231D782A48FFF758F90400012DA1
:1044400011D0012D09DDA31E1B789B007F2B40DDC1
:1044500080222100234800F08BF82348FFF73EF923
:10446000224B186070BD542201001E4800F080F8F5
:104470001F4B1A881F4B9A421CD1A7239B011A88F5
:104480001D4B9A4216D11D4B1A881D4B9A4211D1D1
:104490001C4B1A8894239B019A420BD11A4B1A8801
:1044A0001A4B9A4206D11A4B1A681A4B9A4201D1FA
:1044B000152307E01848FEF779F899001748094ACC
:1044C000885001331F2BF8D9144A064B1A62DA615F
:1044D000B7E7134B134A42211348FDF7CDFFC046FF
:1044E00053460000200700204C330000C405002084
:1044F000EE290000C40F0000C20D0000962B000042
:10450000C0B50000182B0000CC2A000010B5000038
:10451000FC2C000051ED8764805600102D450010E2
:104520002C5A0010A45A0010605A001007B56046BB
:10453000002800D100BE01880A0A0230DF2AFAD121
:10454000C9B2820804D3028840880004104300E006
:104550000068024A5050039007BD00002007002069
:1045600001480421014B1847B0030020FD3600101C
:10457000014B5B6818470000B003002010B50C0029
:10458000036811002000984710BD0000F8B507002F
:104590000D001600437D002B02D0002400200CE00B
:1045A00003681100280098472DE03B7D10E00221B0
:1045B00015483B689847601C0134B44214DA002C5B
:1045C000F3DD2B19013B1B780D3B5A425341DBB203
:1045D0002A5D0A2AF0D1002BEED1A042E7DA211A97
:1045E00028183B689847E2E7B04203DA311A2818E6
:1045F0003B689847002E06DDAD19013D2B780D3B39
:104600005A4253413B75F8BD405B001070B5050040
:104610000368002B16D00C4B1C6805E0290004C968
:104620002000FFF7B3FF2469002C09D02368002B7A
:10463000F9D0064B1B68002BF0D0A342F3D1EDE775
:1046400000232B6070BDC046AC050020B0050020E3
:1046500070B505000C000B68802B05D023685A1C30
:104660002260E418257170BD0800FFF7CFFFF5E761
:1046700010B5FDF73BF900290BDB0E4A0023121899
:104680004B41002B0BDB002B0DDB0B4800F0E4FA59
:1046900010BD0A4B0A4A3F210A48FDF7EDFE0122F0
:1046A0005242094BEFE7054B054A3F210548FDF70C
:1046B000E3FEC04640420F00E0030020644F0010BC
:1046C000285B0010804F0010FFFFFF7F10B50248ED
:1046D00000F09AFA10BDC046E0030020F0B5C646CF
:1046E00000B584B001900D0016001C00FFF7C0FF5C
:1046F00080466B1C05D0002C08D0194F194B1C6844
:1047000007E0019800F04AFA0500F4E7164FF5E7D4
:104710002469002C16D02368002BF9D0134B1B689A
:10472000002B01D0A342F3D12A0001992000B84701
:10473000002EEDD002ABD91D0A230B700122200000
:10474000B847E5E74346002B06D1681E8541E8B22D
:1047500004B004BC9046F0BDFFF7B8FFF5E7C046D3
:104760007D450010AC0500208D450010B0050020EF
:10477000094A1368002B0BD0834202D010331A0071
:10478000F7E7002907D1036913600023036102E002
:10479000002900D010607047AC05002010B5064B12
:1047A0001C6800E02469002C04D06368002BF9D059
:1047B0009847F7E710BDC046AC05002070B505006E
:1047C00000F0ECF904000023012201002800FFF7AB
:1047D00085FFFFF7E3FF200070BD000070B5A2B0B9
:1047E00004000E00FFF744FF05000023019333008F
:1047F000220001A90848FEF759FF040001A8FFF7AD
:1048000005FFFFF7CBFF002D02D1200022B070BDC5
:10481000FFF75CFFF9E7C046514600100FB400B542
:1048200083B004A901C90191FFF7D8FF03B008BC08
:1048300004B0184710B500F0F5F8012010BD0000D5
:10484000F0B583B000251AE06B4607330D241C70C9
:10485000002403E01F78176001340133002C1CD1C1
:104860009769BF06FCD4F5E71E7816600134013362
:10487000002C03D19669B606FCD4F5E701358D42CC
:1048800010DA094B1A68465D084BD3185C42634145
:104890005B00074C1B5FB342D6D06B4607331E70DC
:1048A0000024E5E703B0F0BDE40500200080FCBF74
:1048B0001C060020F0B583B0070000200EE013684E
:1048C0002B7001340135002C03D19369DB06FCD435
:1048D000F5E76B4607331B780370300088420ADA2D
:1048E000104A1268956910242C4004D1461C3818CF
:1048F0006B46DD1DE7E70C4A1268002A0CD0094A16
:10490000116850228A630B0034334A6B38211140FE
:10491000802252011A431160002801D003B0F0BD7B
:104920000338FBE7E40500202C05002010B5064BFA
:104930001B68002B06D0054A126800219163044AC7
:104940001068984710BDC0462C050020E4050020E3
:104950003005002070B505000E001C4B1B681C4A7A
:1049600098184242504114300400002D03D0194AD7
:104970001268002A06D0002D19D0164B1D60164B68
:104980001E6070BD1549FCF717F801212000FCF7E7
:1049900003F80E4B1A685023936311003431536BA4
:1049A00038221A4080235B010B431A60E5E7094A6D
:1049B0001268002AE1D000229A6300212000FBF750
:1049C000EBFF06492000FCF721F8D6E7E4050020BC
:1049D0000080FCBF2C050020300500202D49001070
:1049E00070B50D001C000D4B1860002A0BDA002C6E
:1049F0000EDA0A4B18682900FDF746FB012108482A
:104A0000FFF7B6FE70BD02211000FBF7A3FEEEE734
:104A100002212000FBF79EFEEBE7C046E4050020E4
:104A2000C003002010B5064B1B78064B1B78E12114
:104A30000123002249020448FFF7D2FF10BDC046FF
:104A40003C5C0010405C0010004003400123084A19
:104A50001360084A1360084B9A6801239343FAD104
:104A6000064B01221A60054B1B68DB05FBD570471E
:104A700000E0004000F0004000C0004000C00440E2
:104A800003BD10B50400FCF70BF9A04710BDD023FF
:104A90001B061B6D9B07FAD5D0231B06586540BF2C
:104AA0007047D0231B061B6DDB0701D420BFF8E73E
:104AB000D0231B06986D7047F0B587B005000E0037
:104AC00017000F20FBF74CFF040000210F20FBF71D
:104AD00063FF00230093019301330293039704962D
:104AE0000595002600E00026B3006A469D58002D7B
:104AF0000FD02800FFF7CBFFFFF7D3FF8542F2D19D
:104B00000136052EF0D921000F20FBF745FF07B035
:104B1000F0BDD0231B061B6DDB0703D5D0231B067E
:104B20009B6DF6E740BFE4E710B5930712D103236E
:104B30009A438A1813000C3B186010000838016073
:104B4000043A07491160074A926819000648FFF7BE
:104B5000B3FF10BD054B064A76210648FDF78CFCD5
:104B6000834A001000ED00E0814A0010A85B0010AD
:104B7000845B0010DC5B001010B5064A064B9A42BD
:104B800005D3110080221201FFF7CEFF10BD0121D5
:104B90004942F7E7000804200000042010B583070D
:104BA00027D00378002B26D00300032102E01A78D7
:104BB000002A1CD001330B42F9D119680F4A104C5E
:104BC0008A188A4322420FD1043319680B4A8A1883
:104BD0008A43224208D104331968084A8A188A4352
:104BE0002242F1D000E001331A78002AFBD1181AD2
:104BF00010BD0300E1E70020FAE7C046FFFEFEFE1D
:104C000080808080F8B5C04601B40248844601BC6B
:104C1000604700BFB901002001B40248844601BCCE
:104C2000604700BFE502002001B40248844601BC91
:104C3000604700BF0502002001B40248844601BC61
:104C4000604700BFE502002001B40248844601BC71
:104C5000604700BF4902002001B40248844601BCFD
:084C6000604700BF8501002040
:104C68006972715F7365745F6578636C7573697673
:104C7800655F68616E646C65720000006D616B65EC
:104C88005F6272616E636800696E736572745F62F9
:104C980072616E63685F616E645F6C696E6B000061
:104CA8007265736F6C76655F6272616E636800002F
:104CB8006972715F72656D6F76655F68616E646C4D
:104CC800657200006972715F6164645F7461696C28
:104CD8005F746F5F667265655F6C6973740000006E
:104CE800212864656C7461203E3E203131752900AD
:104CF8006972715F68616E6465725F636861696E2D
:104D08005F667265655F736C6F745F686561642068
:104D18003E3D203000000000767461626C655F687B
:104D2800616E646C6572203D3D205F5F756E6861E1
:104D38006E646C65645F757365725F69727100009B
:104D4800212828282875696E747074725F74297612
:104D58007461626C655F68616E646C657229202D90
:104D680020282875696E747074725F74296972716D
:104D78005F68616E646C65725F636861696E5F73BA
:104D88006C6F747329202D2031292573697A656F1A
:104D98006628737472756374206972715F68616ED6
:104DA800646C65725F636861696E5F736C6F7429A8
:104DB8002900000030783163203D3D20282A696EA3
:104DC8007374293E3E3131750000000069735F73CA
:104DD80068617265645F6972715F7261775F68614B
:104DE8006E646C657228736C6F745F68616E646C56
:104DF80065722900657863657074696F6E000000DC
:104E0800666F756E6400000021657863657074696B
:104E18006F6E207C7C20657863657074696F6E2086
:104E28003D3D206E756D202B20565441424C455F08
:104E380046495253545F49525100000066616C73F1
:104E48006500000063757272656E74203D3D205FD9
:104E58005F756E68616E646C65645F757365725FBB
:104E6800697271207C7C2063757272656E74203D56
:104E78003D2068616E646C657200000064656C7446
:104E880061203E3D202D32303438202626206465AE
:104E98006C7461203C3D2032303436202626202197
:104EA8002864656C74612026203129002F686F6D95
:104EB800652F70692F7069636F2F7069636F2D7329
:104EC800646B2F7372632F7270325F636F6D6D6FD7
:104ED8006E2F68617264776172655F6972712F699C
:104EE80072712E63000000006D757465785F656EE1
:104EF8007465725F626C6F636B5F756E74696C006A
:104F08006D757465785F657869740000746F746195
:104F18006C0000002F686F6D652F70692F706963D2
:104F28006F2F7069636F2D73646B2F7372632F63B8
:104F38006F6D6D6F6E2F7069636F5F73796E632F1E
:104F48006D757465782E63006D74782D3E636F728D
:104F5800652E7370696E5F6C6F636B0075735F733A
:104F6800696E63655F626F6F74203C3D20494E54E3
:104F780036345F4D415800002F686F6D652F70699A
:104F88002F7069636F2F7069636F2D73646B2F7354
:104F980072632F636F6D6D6F6E2F7069636F5F62E1
:104FA8006173652F696E636C7564652F7069636FD3
:104FB8002F74797065732E68000000006C6F636B46
:104FC8005F69735F6F776E65725F69645F76616C46
:104FD8006964286D74782D3E6F776E6572290000BC
:104FE8006D74782D3E656E7465725F636F756E744F
:104FF800000000007570646174655F75735F7369A4
:105008006E63655F626F6F740000000070685F67B1
:1050180065745F6E6F64650070685F6164645F6388
:1050280068696C645F6E6F646500000070685F6932
:105038006E736572745F6E6F6465000070685F669A
:105048007265655F6E6F6465000000006765745F78
:10505800656E7472790000006765745F656E7472BE
:10506800795F69645F68696768000000616C6172F4
:105078006D5F706F6F6C5F6765745F64656661759F
:105088006C7400006164645F616C61726D5F756E61
:105098006465725F6C6F636B00000000616C617225
:1050A8006D5F706F6F6C5F616C61726D5F63616C77
:1050B8006C6261636B000000616C61726D5F706FA0
:1050C8006F6C5F63616E63656C5F616C61726D00CC
:1050D8002170685F636F6E7461696E735F6E6F6471
:1050E8006528706F6F6C2D3E686561702C20726545
:1050F8007573655F6964290072656D6F7665645FB5
:105108006964203D3D206E6578745F696400000025
:1051180063616C6C6261636B00000000706F6F6CA0
:105128002D3E616C61726D5F696E5F70726F677240
:10513800657373203D3D206D616B655F7075626CB2
:1051480069635F69642869645F686967682C206EB1
:105158006578745F696429006964202626202170B7
:10516800685F636F6E7461696E735F6E6F646528E4
:10517800686561702C2069642900000021686561F8
:10518800702D3E667265655F7461696C5F69640065
:10519800616C61726D5F696420213D20706F6F6C76
:1051A8002D3E616C61726D5F696E5F70726F6772C0
:1051B800657373007263000064656661756C745F83
:1051C800616C61726D5F706F6F6C5F696E69746935
:1051D800616C697A656428290000000069642026EA
:1051E80026206964203C3D20686561702D3E6D6114
:1051F800785F6E6F646573002F686F6D652F7069D7
:105208002F7069636F2F7069636F2D73646B2F73D1
:1052180072632F636F6D6D6F6E2F7069636F5F754B
:1052280074696C2F696E636C7564652F7069636F40
:105238002F7574696C2F70686561702E68000000A6
:10524800706172656E745F69640000006368696C00
:10525800645F696400000000706172656E745F6964
:105268006420213D206368696C645F696400000004
:1052780072742D3E616C61726D5F6964203D3D20E2
:10528800696400002F686F6D652F70692F706963FE
:105298006F2F7069636F2D73646B2F7372632F6345
:1052A8006F6D6D6F6E2F7069636F5F74696D652FB9
:1052B80074696D652E630000417474656D70746562
:1052C8006420746F20736C65657020696E736964FF
:1052D80065206F6620616E20657863657074696FFC
:1052E8006E2068616E646C65723B20757365206220
:1052F8007573795F7761697420696620796F7520A5
:105308006D757374000000006964202626206964A6
:10531800203C3D20706F6F6C2D3E686561702D3E9E
:105328006D61785F6E6F646573000000757064610D
:1053380074655F75735F73696E63655F626F6F74C1
:105348000000000068617264776172655F616C617A
:10535800726D5F7365745F746172676574000000D5
:10536800486172647761726520616C61726D202595
:105378006420616C726561647920636C61696D6534
:105388006400000074696D65725F68772D3E696E10
:1053980074732026203175203C3C20616C61726D4D
:1053A8005F6E756D000000002F686F6D652F706966
:1053B8002F7069636F2F7069636F2D73646B2F7320
:1053C80072632F7270325F636F6D6D6F6E2F6861DD
:1053D8007264776172655F74696D65722F74696D47
:1053E80065722E630000000070685F6765745F6E09
:1053F8006F64650070685F6164645F6368696C64AA
:105408005F6E6F646500000070685F72656D6F762F
:10541800655F616E795F68656164000070685F72DE
:10542800656D6F76655F616E645F667265655F6EF8
:105438006F6465006E65775F7375625F747265652A
:1054480020213D20686561702D3E726F6F745F6921
:1054580064000000726F6F745F6964002F686F6D7D
:10546800652F70692F7069636F2F7069636F2D7373
:10547800646B2F7372632F636F6D6D6F6E2F70691E
:10548800636F5F7574696C2F70686561702E630057
:105498002170685F6765745F6E6F64652868656111
:1054A800702C20726F6F745F6964292D3E73696276
:1054B8006C696E67000000002170685F6765745F43
:1054C8006E6F646528686561702C20726F6F745FF9
:1054D8006964292D3E706172656E7400636C6F6338
:1054E8006B5F636F6E666967757265007372635F81
:1054F80066726571203E3D2066726571000000008D
:105508002F686F6D652F70692F7069636F2F7069D1
:10551800636F2D73646B2F7372632F7270325F63C6
:105528006F6D6D6F6E2F68617264776172655F630E
:105538006C6F636B732F636C6F636B732E63000008
:10554800706C6C5F696E69740000000076636F5F51
:1055580066726571203E3D20285049434F5F504C8C
:105568004C5F56434F5F4D494E5F465245515F4B26
:10557800485A202A204B485A292026262076636F2D
:105588005F66726571203C3D20285049434F5F504B
:105598004C4C5F56434F5F4D41585F465245515FF3
:1055A8004B485A202A204B485A2900002F686F6D13
:1055B800652F70692F7069636F2F7069636F2D7322
:1055C800646B2F7372632F7270325F636F6D6D6FD0
:1055D8006E2F68617264776172655F706C6C2F7092
:1055E8006C6C2E63000000006662646976203E3DA4
:1055F800203136202626206662646976203C3D20CC
:105608003332300028706F73745F64697631203EDE
:105618003D203120262620706F73745F64697631CF
:10562800203C3D2037292026262028706F73745F80
:1056380064697632203E3D203120262620706F7323
:10564800745F64697632203C3D20372900000000F1
:105658007265665F66726571203C3D202876636FCF
:105668005F66726571202F20313629002C206675FF
:105678006E6374696F6E3A20000000006173736591
:105688007274696F6E2022257322206661696C65C9
:10569800643A2066696C6520222573222C206C6987
:1056A8006E65202564257325730A000072756E7473
:1056B800696D655F696E6974000000000A2A2A2A0C
:1056C8002050414E4943202A2A2A0A000A00000095
:1056D80031203D3D202875696E747074725F74299D
:1056E8006C2D3E7370696E5F6C6F636B0000000019
:1056F8002F686F6D652F70692F7069636F2F7069E0
:10570800636F2D73646B2F7372632F7270325F63D4
:105718006F6D6D6F6E2F7069636F5F72756E7469F0
:105728006D652F72756E74696D652E6300000000DB
:10573800E231001008320010203200100832001048
:10574800C231001008320010083200100832001070
:105758000832001008320010083200100832001019
:10576800FE31001008320010083200100832001014
:1057780008320010083200102C320010403100109E
:10578800DA300010DA3000104A310010DA30001038
:10579800DA300010DA300010DA300010DA30001099
:1057A800DA300010DA30001036310010DA3000102C
:1057B8002C310010DA300010DA3000100E310010F1
:1057C8005036001066360010663600106636001037
:1057D8006636001066360010663600106636001011
:1057E8006636001066360010663600106636001001
:1057F80066360010663600106636001066360010F1
:1058080066360010663600106636001066360010E0
:1058180066360010663600106636001066360010D0
:1058280066360010663600106636001066360010C0
:1058380066360010663600106636001066360010B0
:10584800843400104434001084340010663600108C
:105858006636001066360010663600106636001090
:105868006636001066360010663600106636001080
:105878006636001066360010663600106636001070
:105888006636001066360010663600103832001092
:105898006636001066360010663600106636001050
:1058A8006636001066360010663600106636001040
:1058B8006636001038320010D43400103832001028
:1058C800843400104434001084340010663600100C
:1058D8003832001066360010663600106636001042
:1058E8006636001066360010383200101A3600107E
:1058F8006636001066360010443500106636001013
:105908003832001066360010663600103832001043
:10591800666E6900666E692B000000006E616E009D
:10592800666E692D00000000000000000000F03FD6
:105938000000000000002440000000000000594062
:105948000000000000408F40000000000088C340B5
:1059580000000000006AF8400000000080842E412A
:1059680000000000D01263410000000084D7974176
:105978000000000065CDCD412A282875696E74386D
:105988005F74202A29726F6D5F646174615F6C6F48
:105998006F6B757028726F6D5F7461626C655F63A1
:1059A8006F6465282753272C2027462729292D325D
:1059B80029202A2034203E3D2053465F5441424C42
:1059C800455F56325F53495A450000002F686F6D96
:1059D800652F70692F7069636F2F7069636F2D73FE
:1059E800646B2F7372632F7270325F636F6D6D6FAC
:1059F8006E2F7069636F5F646F75626C652F646F7B
:105A080075626C655F696E69745F726F6D2E630095
:105A18005F5F61656162695F646F75626C655F692C
:105A28006E6974002A282875696E74385F74202A94
:105A380029726F6D5F7461626C652D3229202A208E
:105A480034203E3D2053465F5441424C455F563218
:105A58005F53495A450000002F686F6D652F7069C4
:105A68002F7069636F2F7069636F2D73646B2F7369
:105A780072632F7270325F636F6D6D6F6E2F706916
:105A8800636F5F666C6F61742F666C6F61745F69BA
:105A98006E69745F726F6D2E630000005F5F6165F1
:105AA8006162695F666C6F61745F696E697400003A
:105AB80006005250BBFF3CB6FC5A0010060052507C
:105AC800E182887FE45A001006005250D3F07542F4
